{
  "_format": "hh-sol-artifact-1",
  "contractName": "TransactionHistory",
  "sourceName": "contracts/TransactionHistory.sol",
  "abi": [
    {
      "inputs": [],
      "stateMutability": "nonpayable",
      "type": "constructor"
    },
    {
      "anonymous": false,
      "inputs": [
        {
          "indexed": false,
          "internalType": "string",
          "name": "id",
          "type": "string"
        },
        {
          "indexed": false,
          "internalType": "string",
          "name": "txType",
          "type": "string"
        },
        {
          "indexed": false,
          "internalType": "uint256",
          "name": "amount",
          "type": "uint256"
        },
        {
          "indexed": false,
          "internalType": "string",
          "name": "method",
          "type": "string"
        },
        {
          "indexed": false,
          "internalType": "uint256",
          "name": "timestamp",
          "type": "uint256"
        }
      ],
      "name": "TransactionAdded",
      "type": "event"
    },
    {
      "inputs": [
        {
          "internalType": "string",
          "name": "_id",
          "type": "string"
        },
        {
          "internalType": "string",
          "name": "_txType",
          "type": "string"
        },
        {
          "internalType": "uint256",
          "name": "_amount",
          "type": "uint256"
        },
        {
          "internalType": "string",
          "name": "_method",
          "type": "string"
        },
        {
          "internalType": "uint256",
          "name": "_timestamp",
          "type": "uint256"
        }
      ],
      "name": "addTransaction",
      "outputs": [],
      "stateMutability": "nonpayable",
      "type": "function"
    },
    {
      "inputs": [
        {
          "internalType": "uint256",
          "name": "index",
          "type": "uint256"
        }
      ],
      "name": "getTransaction",
      "outputs": [
        {
          "internalType": "string",
          "name": "id",
          "type": "string"
        },
        {
          "internalType": "string",
          "name": "txType",
          "type": "string"
        },
        {
          "internalType": "uint256",
          "name": "amount",
          "type": "uint256"
        },
        {
          "internalType": "string",
          "name": "method",
          "type": "string"
        },
        {
          "internalType": "uint256",
          "name": "timestamp",
          "type": "uint256"
        }
      ],
      "stateMutability": "view",
      "type": "function"
    },
    {
      "inputs": [],
      "name": "getTransactionCount",
      "outputs": [
        {
          "internalType": "uint256",
          "name": "",
          "type": "uint256"
        }
      ],
      "stateMutability": "view",
      "type": "function"
    },
    {
      "inputs": [],
      "name": "owner",
      "outputs": [
        {
          "internalType": "address",
          "name": "",
          "type": "address"
        }
      ],
      "stateMutability": "view",
      "type": "function"
    },
    {
      "inputs": [
        {
          "internalType": "uint256",
          "name": "",
          "type": "uint256"
        }
      ],
      "name": "transactions",
      "outputs": [
        {
          "internalType": "string",
          "name": "id",
          "type": "string"
        },
        {
          "internalType": "string",
          "name": "txType",
          "type": "string"
        },
        {
          "internalType": "uint256",
          "name": "amount",
          "type": "uint256"
        },
        {
          "internalType": "string",
          "name": "method",
          "type": "string"
        },
        {
          "internalType": "uint256",
          "name": "timestamp",
          "type": "uint256"
        }
      ],
      "stateMutability": "view",
      "type": "function"
    }
  ],
  "bytecode": "0x608060405234801561001057600080fd5b5033600160006101000a81548173ffffffffffffffffffffffffffffffffffffffff021916908373ffffffffffffffffffffffffffffffffffffffff160217905550610ccf806100616000396000f3fe608060405234801561001057600080fd5b50600436106100575760003560e01c80632e7700f01461005c57806333ea3dc81461007a57806334c080cd146100ae5780638da5cb5b146100ca5780639ace38c2146100e8575b600080fd5b61006461011c565b6040516100719190610acb565b60405180910390f35b610094600480360381019061008f9190610908565b610128565b6040516100a5959493929190610a23565b60405180910390f35b6100c860048036038101906100c39190610849565b610390565b005b6100d2610525565b6040516100df9190610a08565b60405180910390f35b61010260048036038101906100fd9190610908565b61054b565b604051610113959493929190610a23565b60405180910390f35b60008080549050905090565b60608060006060600080805490508610610177576040517f08c379a000000000000000000000000000000000000000000000000000000000815260040161016e90610a8b565b60405180910390fd5b60008087815481106101b2577f4e487b7100000000000000000000000000000000000000000000000000000000600052603260045260246000fd5b90600052602060002090600502019050806000018160010182600201548360030184600401548480546101e490610be1565b80601f016020809104026020016040519081016040528092919081815260200182805461021090610be1565b801561025d5780601f106102325761010080835404028352916020019161025d565b820191906000526020600020905b81548152906001019060200180831161024057829003601f168201915b5050505050945083805461027090610be1565b80601f016020809104026020016040519081016040528092919081815260200182805461029c90610be1565b80156102e95780601f106102be576101008083540402835291602001916102e9565b820191906000526020600020905b8154815290600101906020018083116102cc57829003601f168201915b505050505093508180546102fc90610be1565b80601f016020809104026020016040519081016040528092919081815260200182805461032890610be1565b80156103755780601f1061034a57610100808354040283529160200191610375565b820191906000526020600020905b81548152906001019060200180831161035857829003601f168201915b50505050509150955095509550955095505091939590929450565b600160009054906101000a900473ffffffffffffffffffffffffffffffffffffffff1673ffffffffffffffffffffffffffffffffffffffff163373ffffffffffffffffffffffffffffffffffffffff1614610420576040517f08c379a000000000000000000000000000000000000000000000000000000000815260040161041790610aab565b60405180910390fd5b60006040518060a00160405280878152602001868152602001858152602001848152602001838152509080600181540180825580915050600190039060005260206000209060050201600090919091909150600082015181600001908051906020019061048e929190610729565b5060208201518160010190805190602001906104ab929190610729565b506040820151816002015560608201518160030190805190602001906104d2929190610729565b506080820151816004015550507f21c7f81b0c3400daa618fa0d9daaec9a05d9706fcf59ecf6ad72a1f393ead4938585858585604051610516959493929190610a23565b60405180910390a15050505050565b600160009054906101000a900473ffffffffffffffffffffffffffffffffffffffff1681565b6000818154811061055b57600080fd5b906000526020600020906005020160009150905080600001805461057e90610be1565b80601f01602080910402602001604051908101604052809291908181526020018280546105aa90610be1565b80156105f75780601f106105cc576101008083540402835291602001916105f7565b820191906000526020600020905b8154815290600101906020018083116105da57829003601f168201915b50505050509080600101805461060c90610be1565b80601f016020809104026020016040519081016040528092919081815260200182805461063890610be1565b80156106855780601f1061065a57610100808354040283529160200191610685565b820191906000526020600020905b81548152906001019060200180831161066857829003601f168201915b5050505050908060020154908060030180546106a090610be1565b80601f01602080910402602001604051908101604052809291908181526020018280546106cc90610be1565b80156107195780601f106106ee57610100808354040283529160200191610719565b820191906000526020600020905b8154815290600101906020018083116106fc57829003601f168201915b5050505050908060040154905085565b82805461073590610be1565b90600052602060002090601f016020900481019282610757576000855561079e565b82601f1061077057805160ff191683800117855561079e565b8280016001018555821561079e579182015b8281111561079d578251825591602001919060010190610782565b5b5090506107ab91906107af565b5090565b5b808211156107c85760008160009055506001016107b0565b5090565b60006107df6107da84610b17565b610ae6565b9050828152602081018484840111156107f757600080fd5b610802848285610b9f565b509392505050565b600082601f83011261081b57600080fd5b813561082b8482602086016107cc565b91505092915050565b60008135905061084381610c82565b92915050565b600080600080600060a0868803121561086157600080fd5b600086013567ffffffffffffffff81111561087b57600080fd5b6108878882890161080a565b955050602086013567ffffffffffffffff8111156108a457600080fd5b6108b08882890161080a565b94505060406108c188828901610834565b935050606086013567ffffffffffffffff8111156108de57600080fd5b6108ea8882890161080a565b92505060806108fb88828901610834565b9150509295509295909350565b60006020828403121561091a57600080fd5b600061092884828501610834565b91505092915050565b61093a81610b63565b82525050565b600061094b82610b47565b6109558185610b52565b9350610965818560208601610bae565b61096e81610c71565b840191505092915050565b6000610986601383610b52565b91507f496e646578206f7574206f6620626f756e6473000000000000000000000000006000830152602082019050919050565b60006109c6600e83610b52565b91507f4e6f7420617574686f72697a65640000000000000000000000000000000000006000830152602082019050919050565b610a0281610b95565b82525050565b6000602082019050610a1d6000830184610931565b92915050565b600060a0820190508181036000830152610a3d8188610940565b90508181036020830152610a518187610940565b9050610a6060408301866109f9565b8181036060830152610a728185610940565b9050610a8160808301846109f9565b9695505050505050565b60006020820190508181036000830152610aa481610979565b9050919050565b60006020820190508181036000830152610ac4816109b9565b9050919050565b6000602082019050610ae060008301846109f9565b92915050565b6000604051905081810181811067ffffffffffffffff82111715610b0d57610b0c610c42565b5b8060405250919050565b600067ffffffffffffffff821115610b3257610b31610c42565b5b601f19601f8301169050602081019050919050565b600081519050919050565b600082825260208201905092915050565b6000610b6e82610b75565b9050919050565b600073ffffffffffffffffffffffffffffffffffffffff82169050919050565b6000819050919050565b82818337600083830152505050565b60005b83811015610bcc578082015181840152602081019050610bb1565b83811115610bdb576000848401525b50505050565b60006002820490506001821680610bf957607f821691505b60208210811415610c0d57610c0c610c13565b5b50919050565b7f4e487b7100000000000000000000000000000000000000000000000000000000600052602260045260246000fd5b7f4e487b7100000000000000000000000000000000000000000000000000000000600052604160045260246000fd5b6000601f19601f8301169050919050565b610c8b81610b95565b8114610c9657600080fd5b5056fea2646970667358221220f280bac420a9e0285a81a5f5d8eef00e59f2ff6a8a38c1c5392d14fb98c2eedf64736f6c63430008000033",
  "linkReferences": {},
  "deployedLinkReferences": {}
}